S0170000554152545F426F6F746C6F616465722E7372656367
S113000090040020F1000000ED000000ED0000006D
S113001000000000000000000000000000000000DC
S1130020000000000000000000000000ED000000DF
S11300300000000000000000ED000000ED000000E2
S1130040ED000000ED000000ED000000ED000000F8
S1130050ED000000ED000000ED00000000000000D5
S1130060ED000000ED000000ED00000000000000C5
S113007000000000ED000000ED000000ED000000B5
S11300800000000000000000ED00000010B5064C68
S11300902378002B07D1054B002B02D0044800E045
S11300A000BF0123237010BD500000200000000099
S11300B0AC05000008B5084B002B03D007480849DD
S11300C000E000BF07480368002B00D108BD064BC1
S11300D0002BFBD09847F9E700000000AC050000B6
S11300E054000020AC05000000000000FEE7000002
S11300F01C481D4910B50023884201D11B4B07E061
S11301001B4CCA18A242F9D2C45804331460F7E74E
S1130110184A934202D2002204C3F9E7FF210220C5
S1130120154B164A8B4393603022154B5862154B7E
S1130130997B9143103A11439973997B143A9143F3
S1130140043A1143997303219A7B8A4302439A73B5
S11301500D4A7D3153680B4353600C4B98470C4B4D
S11301609847FEE7AC050000000000205000002086
S113017050000020900000200000000000ED00E08E
S1130180FC7000410048004100400041410500006E
S11301905D0300008023054A1B011360044A1968AB
S11301A01360044A1160044A136070477000002011
S11301B07C0000208800002084000020184A30B50C
S11301C0111C012559310B780F242B430B70131C80
S11301D020213C331878583220401870187808438E
S11301E0187002201178294311701A78A2431A70EA
S11301F019780C4A014319700821136A0B431362DE
S1130200094A0A4B5A800A4B0A4A1A60C0229202CF
S11302105A60094A9A811A6802431A6030BDC0467E
S113022000440041000400400F400000000C004066
S1130230000C00420400314004C5FFFF084B197E46
S11302401A1CC907FAD507490978002902D180B2D6
S1130250188504E00A2800D1203080B21085704748
S1130260000C00426C00002008B57320014B984735
S113027008BDC0463D02000010B50024034BE05CFD
S1130280034B013498474E2CF8D110BD00000020D8
S11302903D020000034B1A7E5207FBD5188DC0B2F5
S11302A07047C046000C0042094B1A7DD207FBD5AB
S11302B0198B084A0A401A83197D054AC907FBD5D8
S11302C005494008D06111801A7DD207FCD57047DA
S11302D000400041E0FEFFFF02A5FFFFF0B51A4B0E
S11302E01C7DE407FBD580255C68AC435C60174C3F
S11302F01C801C7D144DE407FBD52E8B144C400848
S113030034402C8300244000A5B2954210D2A5B2FB
S1130310571E4E5DBD4201DBB5B203E04D196D7849
S11303202D023543261835800A4D02341D80EBE733
S113033009490978002903D13F2A01D8054A1A80BE
S11303401A7DD207FCD5F0BD0040004144A5FFFF53
S1130350E0FEFFFF04A5FFFF8000002080220620AE
S1130360F0B55F4B5F4912029A610870196A85B053
S113037000AF11420DD080205B4A5C491268000135
S11303800A600268043282F30888594A90600A6855
S113039010470822574968468C686403640FA240DA
S11303A0141C92B2BA60E21DD208D200821A042050
S11303B0FA6095461A6802431A604F4A1368034369
S11303C013604E4A4E4B106A0340136280224B68FE
S11303D0D20213434B604B4B98474B4DA8474B4BB2
S11303E07D60187023280CD1494B4A4D1B78002B93
S11303F002D1494B984701E02120A8470520A8478E
S1130400EBE7652818D18023444D1B012B60286835
S1130410434B984206D8434B211C98472B68013321
S1130420FF33F3E73A4B1B78002B01D13A4BD3E768
S11304306020384B9847D0E7702826D1344B1B787E
S1130440002B01D1344B98470023344D2B602E6888
S1130450A64206D27B689847FB6898552B680133FF
S1130460F4E7314D314B2868F968BA6898472B682E
S1130470E3182B60264B1B78002B02D1264B9847A0
S11304801BE02520234B984717E0762819D1204BF1
S11304901B78002B01D1204B984700231F4D2B6064
S11304A02B68A34209D2224A1368591C1160187898
S11304B0184B98472B680133F1E704221D4B1A604F
S11304C08BE76D2801D11C4B86E7692801D11B4BB2
S11304D082E77E2881D101220D4B1A707DE7C04648
S11304E0004400414F4400410408000088000020FB
S11304F000ED00E0004000411044004100080040CD
S1130500FFFCFFFFBD010000950200004E0000202B
S11305106C0000203D02000069020000740000200D
S1130520FF1F0000A902000070000020DD0200008F
S1130530840000201C440041950100007902000061
S11305400E4B70B500251E1C0D4CE41AA410A542D8
S113055004D0AB00F35898470135F8E700F016F8DB
S1130560084B00251E1C084CE41AA410A54204D014
S1130570AB00F35898470135F8E770BD98050000C3
S113058098050000980500009C050000F8B5C046D9
S1130590F8BC08BC9E467047B5000000F8B5C046DC
S10F05A0F8BC08BC9E4670478D000000AB
S11305AC73616D4445565F3039202020200A626FF8
S11305BC6F746C6F616465722056312E320A446517
S11305CC7620426F61726420726567697374657218
S11305DC656420746F20616C657820616C310A420B
S11305EC6F6172642049442030783030310A010044
S9030000FC
